{
  "abi": [
    {
      "inputs": [
        {
          "internalType": "address",
          "name": "_diamondAddress",
          "type": "address"
        },
        {
          "internalType": "address",
          "name": "_owner",
          "type": "address"
        },
        {
          "internalType": "address",
          "name": "_sfsContract",
          "type": "address"
        },
        {
          "internalType": "uint256",
          "name": "_tokenId",
          "type": "uint256"
        }
      ],
      "stateMutability": "nonpayable",
      "type": "constructor"
    },
    {
      "anonymous": false,
      "inputs": [
        {
          "indexed": true,
          "internalType": "address",
          "name": "facet",
          "type": "address"
        },
        {
          "indexed": false,
          "internalType": "uint256",
          "name": "selectorIndex",
          "type": "uint256"
        },
        {
          "indexed": false,
          "internalType": "bytes",
          "name": "data",
          "type": "bytes"
        },
        {
          "indexed": false,
          "internalType": "uint256",
          "name": "timestamp",
          "type": "uint256"
        }
      ],
      "name": "DiamondInteraction",
      "type": "event"
    },
    {
      "anonymous": false,
      "inputs": [
        {
          "indexed": true,
          "internalType": "address",
          "name": "newDiamond",
          "type": "address"
        }
      ],
      "name": "DiamondSet",
      "type": "event"
    },
    {
      "anonymous": false,
      "inputs": [
        {
          "indexed": true,
          "internalType": "address",
          "name": "token",
          "type": "address"
        },
        {
          "indexed": true,
          "internalType": "address",
          "name": "to",
          "type": "address"
        },
        {
          "indexed": false,
          "internalType": "uint256",
          "name": "amount",
          "type": "uint256"
        }
      ],
      "name": "ERC20Transferred",
      "type": "event"
    },
    {
      "anonymous": false,
      "inputs": [
        {
          "indexed": true,
          "internalType": "address",
          "name": "token",
          "type": "address"
        },
        {
          "indexed": true,
          "internalType": "address",
          "name": "to",
          "type": "address"
        },
        {
          "indexed": false,
          "internalType": "uint256",
          "name": "tokenId",
          "type": "uint256"
        }
      ],
      "name": "ERC721Transferred",
      "type": "event"
    },
    {
      "anonymous": false,
      "inputs": [
        {
          "indexed": false,
          "internalType": "address",
          "name": "sender",
          "type": "address"
        },
        {
          "indexed": false,
          "internalType": "uint256",
          "name": "amount",
          "type": "uint256"
        }
      ],
      "name": "EtherReceived",
      "type": "event"
    },
    {
      "anonymous": false,
      "inputs": [
        {
          "indexed": true,
          "internalType": "address",
          "name": "facet",
          "type": "address"
        },
        {
          "indexed": false,
          "internalType": "bytes4[]",
          "name": "selectors",
          "type": "bytes4[]"
        }
      ],
      "name": "FacetSelectorsSet",
      "type": "event"
    },
    {
      "anonymous": false,
      "inputs": [
        {
          "indexed": true,
          "internalType": "address",
          "name": "previousOwner",
          "type": "address"
        },
        {
          "indexed": true,
          "internalType": "address",
          "name": "newOwner",
          "type": "address"
        }
      ],
      "name": "OwnershipTransferred",
      "type": "event"
    },
    {
      "anonymous": false,
      "inputs": [
        {
          "indexed": false,
          "internalType": "address",
          "name": "operator",
          "type": "address"
        },
        {
          "indexed": false,
          "internalType": "address",
          "name": "from",
          "type": "address"
        },
        {
          "indexed": false,
          "internalType": "uint256",
          "name": "tokenId",
          "type": "uint256"
        },
        {
          "indexed": false,
          "internalType": "bytes",
          "name": "data",
          "type": "bytes"
        }
      ],
      "name": "TokenReceived",
      "type": "event"
    },
    {
      "inputs": [
        {
          "internalType": "address",
          "name": "token",
          "type": "address"
        },
        {
          "internalType": "address",
          "name": "spender",
          "type": "address"
        },
        {
          "internalType": "uint256",
          "name": "amount",
          "type": "uint256"
        }
      ],
      "name": "approveERC20",
      "outputs": [],
      "stateMutability": "nonpayable",
      "type": "function"
    },
    {
      "inputs": [
        {
          "internalType": "address",
          "name": "_facetAddress",
          "type": "address"
        },
        {
          "internalType": "uint256",
          "name": "_selectorIndex",
          "type": "uint256"
        },
        {
          "internalType": "bytes",
          "name": "_data",
          "type": "bytes"
        }
      ],
      "name": "callDiamond",
      "outputs": [
        {
          "internalType": "bool",
          "name": "success",
          "type": "bool"
        },
        {
          "internalType": "bytes",
          "name": "result",
          "type": "bytes"
        }
      ],
      "stateMutability": "payable",
      "type": "function"
    },
    {
      "inputs": [],
      "name": "diamond",
      "outputs": [
        {
          "internalType": "address",
          "name": "",
          "type": "address"
        }
      ],
      "stateMutability": "view",
      "type": "function"
    },
    {
      "inputs": [],
      "name": "getBalance",
      "outputs": [
        {
          "internalType": "uint256",
          "name": "",
          "type": "uint256"
        }
      ],
      "stateMutability": "view",
      "type": "function"
    },
    {
      "inputs": [],
      "name": "getDiamond",
      "outputs": [
        {
          "internalType": "address",
          "name": "",
          "type": "address"
        }
      ],
      "stateMutability": "view",
      "type": "function"
    },
    {
      "inputs": [
        {
          "internalType": "address",
          "name": "token",
          "type": "address"
        },
        {
          "internalType": "uint256",
          "name": "tokenId",
          "type": "uint256"
        }
      ],
      "name": "getERC721TokenOwner",
      "outputs": [
        {
          "internalType": "address",
          "name": "",
          "type": "address"
        }
      ],
      "stateMutability": "view",
      "type": "function"
    },
    {
      "inputs": [
        {
          "internalType": "address",
          "name": "token",
          "type": "address"
        }
      ],
      "name": "getTokenBalance",
      "outputs": [
        {
          "internalType": "uint256",
          "name": "",
          "type": "uint256"
        }
      ],
      "stateMutability": "view",
      "type": "function"
    },
    {
      "inputs": [
        {
          "internalType": "address",
          "name": "operator",
          "type": "address"
        },
        {
          "internalType": "address",
          "name": "from",
          "type": "address"
        },
        {
          "internalType": "uint256",
          "name": "tokenId",
          "type": "uint256"
        },
        {
          "internalType": "bytes",
          "name": "data",
          "type": "bytes"
        }
      ],
      "name": "onERC721Received",
      "outputs": [
        {
          "internalType": "bytes4",
          "name": "",
          "type": "bytes4"
        }
      ],
      "stateMutability": "nonpayable",
      "type": "function"
    },
    {
      "inputs": [],
      "name": "owner",
      "outputs": [
        {
          "internalType": "address",
          "name": "",
          "type": "address"
        }
      ],
      "stateMutability": "view",
      "type": "function"
    },
    {
      "inputs": [
        {
          "internalType": "address",
          "name": "_diamond",
          "type": "address"
        }
      ],
      "name": "setInteractionDiamond",
      "outputs": [],
      "stateMutability": "nonpayable",
      "type": "function"
    },
    {
      "inputs": [
        {
          "internalType": "bytes",
          "name": "_data",
          "type": "bytes"
        }
      ],
      "name": "staticCallDiamond",
      "outputs": [
        {
          "internalType": "bool",
          "name": "success",
          "type": "bool"
        },
        {
          "internalType": "bytes",
          "name": "result",
          "type": "bytes"
        }
      ],
      "stateMutability": "view",
      "type": "function"
    },
    {
      "inputs": [
        {
          "internalType": "address",
          "name": "token",
          "type": "address"
        },
        {
          "internalType": "address",
          "name": "to",
          "type": "address"
        },
        {
          "internalType": "uint256",
          "name": "amount",
          "type": "uint256"
        }
      ],
      "name": "transferERC20",
      "outputs": [],
      "stateMutability": "nonpayable",
      "type": "function"
    },
    {
      "inputs": [
        {
          "internalType": "address",
          "name": "token",
          "type": "address"
        },
        {
          "internalType": "address",
          "name": "to",
          "type": "address"
        },
        {
          "internalType": "uint256",
          "name": "tokenId",
          "type": "uint256"
        }
      ],
      "name": "transferERC721",
      "outputs": [],
      "stateMutability": "nonpayable",
      "type": "function"
    },
    {
      "inputs": [
        {
          "internalType": "address payable",
          "name": "to",
          "type": "address"
        },
        {
          "internalType": "uint256",
          "name": "amount",
          "type": "uint256"
        }
      ],
      "name": "transferEther",
      "outputs": [],
      "stateMutability": "nonpayable",
      "type": "function"
    },
    {
      "inputs": [
        {
          "internalType": "address",
          "name": "newOwner",
          "type": "address"
        }
      ],
      "name": "transferOwnership",
      "outputs": [],
      "stateMutability": "nonpayable",
      "type": "function"
    },
    {
      "stateMutability": "payable",
      "type": "receive"
    }
  ],
  "bytecode": {
    "object": "0x608080604052346200013d5760808162001075803803809162000023828562000142565b8339810103126200013d5762000039816200017c565b6020620000488184016200017c565b602460606200005a604087016200017c565b950151946001600160a01b0394851690620000828215156200007c8162000191565b62000191565b8560018060a01b03199160009883858b95865416178555604051998a9889977fc2c7b6f89581aaed297b266b8b7687a221c3bbb4fadafb49df5e5d0a1fdea4ab8880a216906001541617600155630981022760e31b85526004850152165af180156200013257620000fe575b604051610e829081620001f38239f35b602090813d81116200012a575b62000117818362000142565b81010312620001275780620000ee565b80fd5b503d6200010b565b6040513d84823e3d90fd5b600080fd5b601f909101601f19168101906001600160401b038211908210176200016657604052565b634e487b7160e01b600052604160045260246000fd5b51906001600160a01b03821682036200013d57565b156200019957565b60405162461bcd60e51b815260206004820152602b60248201527f4469616d6f6e6420616464726573732063616e6e6f7420626520746865207a6560448201526a39379030b2323932b9b99760a91b6064820152608490fdfe60406080815260048036101561004e575b50361561001c57600080fd5b513381523460208201527f1e57e3bb474320be3d2c77138f75b7c3941292d647f5f9634e33a8e94e0e069b90604090a1005b90600091823560e01c80630107465114610a0057806305b1137b1461093657806312065fe01461091b578063150b7a02146108685780631aca6376146107555780633aecd0e3146106c05780638da5cb5b14610697578063930290a71461058a5780639db5dbe414610479578063a6b3a197146103f6578063a8e5e4aa146102a1578063b6988463146101f8578063d7b8b95b146101cc578063f0b7db4e146101cc5763f2fde38b14610102575090610010565b346101c85760203660031901126101c85761011b610b6b565b600154916001600160a01b0380841692610136338514610bb6565b1693841561017757505082907f8be0079c531659141344cd1fd0a4f28419497f9722a3daafe3b4186f6b6457e08580a36001600160a01b0319161760015580f35b906020608492519162461bcd60e51b8352820152602560248201527f4e6577206f776e65722063616e6e6f7420626520746865207a65726f206164646044820152643932b9b99760d91b6064820152fd5b8280fd5b5050346101f457816003193601126101f457905490516001600160a01b039091168152602090f35b5080fd5b5090346101c857806003193601126101c857610212610b6b565b908051926331a9108f60e11b84526024359084015260208360248160018060a01b038096165afa928315610297578493610253575b50602093505191168152f35b9092506020813d821161028f575b8161026e60209383610a6f565b8101031261028b5751818116810361028b57602093509138610247565b8380fd5b3d9150610261565b81513d86823e3d90fd5b5090346101c8576102b136610b81565b91939060018060a01b03916102cb83600154163314610bb6565b828754966102df60ff8960a01c1615610c6c565b60ff60a01b19978816600160a01b17895516926102fd841515610cf8565b82161561039f579183918760209461031a61034e98971515610db8565b865163095ea7b360e01b81526001600160a01b03909316908301908152602081019490945290958693849291839160400190565b03925af19081156103965750610368575b50815416815580f35b6103889060203d811161038f575b6103808183610a6f565b810190610e04565b503861035f565b503d610376565b513d85823e3d90fd5b608490602086519162461bcd60e51b8352820152602b60248201527f5370656e64657220616464726573732063616e6e6f7420626520746865207a6560448201526a39379030b2323932b9b99760a91b6064820152fd5b833461047657602036600319011261047657610410610b6b565b6001546001600160a01b03919061042a9083163314610bb6565b1661043f81151561043a81610c0c565b610c0c565b81546001600160a01b031916811782557fc2c7b6f89581aaed297b266b8b7687a221c3bbb4fadafb49df5e5d0a1fdea4ab8280a280f35b80fd5b50346101c85761048836610b81565b90919381602060018060a01b03946104a586600154163314610bb6565b858954986104b960ff8b60a01c1615610c6c565b60ff60a01b19998a16600160a01b178b5516956104d7871515610cf8565b8116966104e5881515610d56565b6104f0841515610db8565b845163a9059cbb60e01b81526001600160a01b039092169082019081526020810193909352918290819060400103818a885af1801561058057917fe8de91d538b06154a2c48315768c5046f47e127d7fd3f726fd85cc723f29b0529391602093610563575b5051908152a3815416815580f35b61057990843d811161038f576103808183610a6f565b5038610555565b82513d89823e3d90fd5b50919060603660031901126101f4576105a1610b6b565b9260443567ffffffffffffffff811161028b5761063f92916105c591369101610ac3565b9260018060a01b03946105dd86600154163314610bb6565b8154906105f060ff8360a01c1615610c6c565b60ff60a01b19828116600160a01b178455865190928491829160208a019083908c165af19561061d610e1c565b978761062881610cb8565b610643575b50505081541690555192839283610b4f565b0390f35b7f082051b8df43d6ba1a85a1c7021d698e20ef01988f9572b4d8e0fd432efcac77916106849187519283926024358452606060208501526060840190610b0f565b94428984015216930390a238808061062d565b5050346101f457816003193601126101f45760015490516001600160a01b039091168152602090f35b509190346101f457602092836003193601126101c857836001600160a01b036106e7610b6b565b169160248451809481936370a0823160e01b835230908301525afa92831561074a578093610718575b505051908152f35b909192508382813d8311610743575b6107318183610a6f565b81010312610476575051903880610710565b503d610727565b8251903d90823e3d90fd5b50346101c85761076436610b81565b90919360018060a01b0361077d81600154163314610bb6565b8087549661079160ff8960a01c1615610c6c565b60ff60a01b19978816600160a01b17895516936107af851515610cf8565b16936107bc851515610d56565b833b15610864578151906323b872dd60e01b82523081830152856024830152836044830152878260648183895af1801561085a57610829575b50507fcd68d836931d28b26c81fd06a68b603542d9b3a2fd1ba1c1bd30c9e2e5f4e6eb9160209151908152a3815416815580f35b67ffffffffffffffff829893981161084757508652948160206107f5565b634e487b7160e01b835260419052602482fd5b83513d8a823e3d90fd5b8680fd5b50346101c85760803660031901126101c857610882610b6b565b6001600160a01b039390916024358581169290839003610476576064359067ffffffffffffffff82116104765750602095926108e67f5343d39c46825e39cfee854256354ed1b3837af99997a3242ae29e831889773c959361090b93369101610ac3565b9086519485941684528784015260443586840152608060608401526080830190610b0f565b0390a151630a85bd0160e11b8152f35b5050346101f457816003193601126101f45751478152602090f35b50346101c857816003193601126101c8576001600160a01b03919035828116919082900361028b5761097060243593600154163314610bb6565b83549161098360ff8460a01c1615610c6c565b60ff60a01b19928316600160a01b17855561099f811515610d56565b84848281156109ae8115610db8565b83906109f7575b839283928392f115610297577f1e57e3bb474320be3d2c77138f75b7c3941292d647f5f9634e33a8e94e0e069b929382519182526020820152a1815416815580f35b506108fc6109b5565b508290346101f45760203660031901126101f457803567ffffffffffffffff81116101c8578291610a3391369101610ac3565b8154815191602001906001600160a01b03165afa61063f610a52610e1c565b92610a5c83610cb8565b610a6583610cb8565b5192839283610b4f565b90601f8019910116810190811067ffffffffffffffff821117610a9157604052565b634e487b7160e01b600052604160045260246000fd5b67ffffffffffffffff8111610a9157601f01601f191660200190565b81601f82011215610b0a57803590610ada82610aa7565b92610ae86040519485610a6f565b82845260208383010111610b0a57816000926020809301838601378301015290565b600080fd5b919082519283825260005b848110610b3b575050826000602080949584010152601f8019910116010190565b602081830181015184830182015201610b1a565b604090610b689392151581528160208201520190610b0f565b90565b600435906001600160a01b0382168203610b0a57565b6060906003190112610b0a576001600160a01b03906004358281168103610b0a57916024359081168103610b0a579060443590565b15610bbd57565b60405162461bcd60e51b815260206004820152602160248201527f4f6e6c79206f776e65722063616e2063616c6c20746869732066756e6374696f6044820152603760f91b6064820152608490fd5b15610c1357565b60405162461bcd60e51b815260206004820152602b60248201527f4469616d6f6e6420616464726573732063616e6e6f7420626520746865207a6560448201526a39379030b2323932b9b99760a91b6064820152608490fd5b15610c7357565b60405162461bcd60e51b815260206004820152601f60248201527f5265656e7472616e637947756172643a207265656e7472616e742063616c6c006044820152606490fd5b15610cbf57565b60405162461bcd60e51b8152602060048201526011602482015270119858d95d0818d85b1b0819985a5b1959607a1b6044820152606490fd5b15610cff57565b60405162461bcd60e51b815260206004820152602960248201527f546f6b656e20616464726573732063616e6e6f7420626520746865207a65726f6044820152681030b2323932b9b99760b91b6064820152608490fd5b15610d5d57565b60405162461bcd60e51b815260206004820152602d60248201527f526563697069656e7420616464726573732063616e6e6f74206265207468652060448201526c3d32b9379030b2323932b9b99760991b6064820152608490fd5b15610dbf57565b60405162461bcd60e51b815260206004820152601e60248201527f416d6f756e74206d7573742062652067726561746572207468616e20302e00006044820152606490fd5b90816020910312610b0a57518015158103610b0a5790565b3d15610e47573d90610e2d82610aa7565b91610e3b6040519384610a6f565b82523d6000602084013e565b60609056fea264697066735822122099ce27f92b5f78b88544346447f5c7fd1ea085eabdda708f7142cc7c79dedbe064736f6c63430008140033",
    "linkReferences": {}
  },
  "methodIdentifiers": {
    "approveERC20(address,address,uint256)": "a8e5e4aa",
    "callDiamond(address,uint256,bytes)": "930290a7",
    "diamond()": "f0b7db4e",
    "getBalance()": "12065fe0",
    "getDiamond()": "d7b8b95b",
    "getERC721TokenOwner(address,uint256)": "b6988463",
    "getTokenBalance(address)": "3aecd0e3",
    "onERC721Received(address,address,uint256,bytes)": "150b7a02",
    "owner()": "8da5cb5b",
    "setInteractionDiamond(address)": "a6b3a197",
    "staticCallDiamond(bytes)": "01074651",
    "transferERC20(address,address,uint256)": "9db5dbe4",
    "transferERC721(address,address,uint256)": "1aca6376",
    "transferEther(address,uint256)": "05b1137b",
    "transferOwnership(address)": "f2fde38b"
  },
  "id": 58
}